:020000021000EC
:10F00000000001205D3003008530030087300300DD
:10F01000893003008B3003008D30030000000000B6
:10F020000000000000000000000000008F3003001E
:10F03000913003000000000093300300953003007E
:10F04000ED8A020097300300F59B02009730030021
:10F050009730030097300300D591020097300300EA
:10F060009730030097300300973003009730030078
:10F070009730030097300300973003009730030068
:10F080009730030031F902009730030097300300F6
:10F0900071F9020097300300490D03009730030017
:10F0A0009730030097300300973003009730030038
:10F0B00097300300973003000000000000000000BC
:10F0C0009730030097300300973003009730030018
:10F0D00097300300973003009730030000000000D2
:10F0E0000000000000000000000000000000000020
:10F0F0000000000000000000000000000000000010
:10F1000000000000000000000000000000000000FF
:10F1100000000000000000000000000000000000EF
:10F1200000000000000000000000000000000000DF
:10F1300000000000000000000000000000000000CF
:10F1400000000000000000000000000000000000BF
:10F1500000000000000000000000000000000000AF
:10F16000000000000000000000000000000000009F
:10F17000000000000000000000000000000000008F
:10F18000000000000000000000000000000000007F
:10F19000000000000000000000000000000000006F
:10F1A000000000000000000000000000000000005F
:10F1B000000000000000000000000000000000004F
:10F1C000000000000000000000000000000000003F
:10F1D000000000000000000000000000000000002F
:10F1E000000000000000000000000000000000001F
:10F1F000000000000000000000000000000000000F
:10F2000010B5054C237833B9044B13B10448AFF360
:10F2100000800123237010BDAC22002000000000FC
:10F220007C4F03000C4B43B10C480D4910B5AFF3B4
:10F2300000800C48036823B910BD0A48036833B93D
:10F240007047094B002BF7D0BDE810401847064B1C
:10F25000002BF5D0184700BF000000007C4F0300D2
:10F26000B02200207C22002000000000154B002B63
:10F2700008BF134B9D46A3F5803A00218B460F46ED
:10F280001348144A121A13F079FF0F4B002B00D0C9
:10F2900098470E4B002B00D0984700200021040017
:10F2A0000D000D48002802D00C48AFF3008013F089
:10F2B00007FF2000290012F039FF13F0EDFE00BF18
:10F2C0000000080000000120000000000000000015
:10F2D000AC220020C8330020000000000000000025
:10F2E00080B582B000AF786039607B68002B18D0A1
:10F2F0003B68002B15D03B681B88112B08D0502B86
:10F300000BD0102B0DD13968786801F01EFB08E096
:10F310003968786801F027FB03E03968786801F004
:10F3200030FB0837BD4680BD80B594B000AF786033
:10F3300039607B681B7D002B1FD007F12803032257
:10F340000021184613F01AFF97F82830012262F3C3
:10F35000030387F8283097F82830012262F3071357
:10F3600087F828303B685B7B87F8293097F82A308C
:10F37000012262F3420387F82A3007F12C031C2292
:10F380000021184613F0FAFE97F82C3043F00203E0
:10F3900087F82C307B681A7D97F82C3062F30413C1
:10F3A00087F82C3000233B630023BB630023FB63FF
:10F3B0007B681B7D002B02D007F1280300E00023AF
:10F3C0003B6400237B640123BB7442F619233B8218
:10F3D00007F10C0303220021184613F0CFFE3B680F
:10F3E0009B7B3B733B68DB7B7B73BB7B012262F3C4
:10F3F0004203BB73BB7B6FF3C303BB73BB7B6FF376
:10F400000413BB73BB7B6FF30003BB733B681B7BB5
:10F41000FB7207F1140314220021184613F0AEFE0C
:10F4200007F110037B6107F10C03BB610123BB8370
:10F430000023FB8301233B8407F10B037B627B6882
:10F4400098887B68063307F1140207F12C0101F05C
:10F4500070FAF864FB6C002B01D0FB6C62E03B6837
:10F460009B68002B5AD00123BB7442F608133B82E1
:10F4700007F10C0303220021184613F07FFE3B68BE
:10F480001B7C3B737B7B6FF303037B737B7B6FF393
:10F4900007137B73BB7B012262F34203BB73BB7B0D
:10F4A0006FF3C303BB73BB7B6FF30413BB73BB7BF3
:10F4B0006FF30003BB733B689A6807F108031146BA
:10F4C000184602F0B7FB034687F84B3007F11403E8
:10F4D00014220021184613F051FE07F110037B613E
:10F4E00007F10C03BB6197F84B309BB2BB83002341
:10F4F000FB83BB8B3B8407F108037B627B68D88866
:10F500007B6803F10E0207F11403194601F014FAA7
:10F51000F864FB6C002B04D0FB6C03E07B680022DA
:10F52000DA81002318465037BD4680BD80B584B0CF
:10F5300000AF786039607B68002B02D03B68002BFD
:10F5400001D10E2326E03B681A687B681A607B684D
:10F550004FF6FF725A823B681A797B681A757B688E
:10F56000FF221A740123BB7241F60F033B817B68B3
:10F570001A1D07F108031946012001F0D7F9F860B8
:10F58000FB68002B01D0FB6804E039687868FFF75E
:10F59000CBFE034618461037BD4680BD80B58AB005
:10F5A00000AF78600B46FB707B68002B01D10E2307
:10F5B00050E000237B627B681A7CFB789A4248D03B
:10F5C00007F11C0308220021184613F0D7FD012380
:10F5D000BB830023FB83FB1C3B627B68588A7B68F0
:10F5E000DB8807F11C02194601F0A9F978627B6AF1
:10F5F000002B09D1FA787B681A747B685B8A4FF616
:10F60000FF72934202D122E07B6A23E07B681B7D7C
:10F61000002B1CD007F10C0310220021184613F018
:10F62000ADFD7B68DB88BB810123BB73FB8B3B8219
:10F6300007F11C037B613B6ABB617B685B8A07F156
:10F640000C021146184601F07DF9786201E00823AA
:10F650007B627B6A18462837BD4680BD73DF7047E2
:10F660001846000080B400AF034B7B441B7818465B
:10F67000BD465DF8047B7047483DFE1F80B485B0F1
:10F6800000AF78600023FB600AE07A68FB681344EF
:10F690001B78002B01D0012306E0FB680133FB60DF
:10F6A000FB68052BF1D9002318461437BD465DF8D9
:10F6B000047B704780B483B000AF0346FB71FB79D5
:10F6C0005A1C084B83FB02135910D317C91A0B4657
:10F6D0009B000B44D11ACBB218460C37BD465DF8DF
:10F6E000047B70476766666680B483B000AF78605D
:10F6F0007B68DB7B012B04D17B689A88034B7B44BE
:10F700001A800C37BD465DF8047B7047A63CFE1F8F
:10F7100080B584B000AF78600F4B7B4400221A7034
:10F720007B689A880D4B7B441B889A4210D101203C
:10F7300000F002FBF860FB68002B09D0084B7B440B
:10F740001B68002B04D0074B7B441B68F868984764
:10F750001037BD4680BD00BF963CFE1F7E3CFE1F9D
:10F760006E3CFE1F643CFE1F80B584B000AF786025
:10F770007B681B7A002B17D10D4B7B441B781846F6
:10F78000FFF798FF0346184600F0D6FAF860FB68CA
:10F79000002B09D0074B7B441B68002B04D0064B81
:10F7A0007B441B68F86898471037BD4680BD00BF92
:10F7B000653BFE1F163CFE1F0C3CFE1F80B582B051
:10F7C00000AF3B1D18460EF0D9FE7B68002B14BF1E
:10F7D00001230023DBB218460837BD4680BD000078
:10F7E00080B584B000AF0346FB71204B7B44581CAE
:10F7F000FFF744FF0346FB73FB79013B032B2FD834
:10F8000002A252F823301A44104700BF1100000032
:10F81000250000003900000047000000144B7B4425
:10F820005B78002B04D0FB7B002B01D0012318E078
:10F83000104B7B449B78002B04D0FB7B002B01D02A
:10F8400002230EE00C4B7B44DB78002B01D003231A
:10F8500007E00A4B7B441B79002B01D0042300E016
:10F86000002318461037BD4680BD00BF183BFE1F61
:10F87000C23AFE1FAE3AFE1F9A3AFE1F8C3AFE1F96
:10F8800080B483B000AF78600B4B7B4401221A70C8
:10F890007B680A4A7A445A607B6801221A707B6846
:10F8A00000229A817B6800225A81002318460C3777
:10F8B000BD465DF8047B7047543AFE1F703AFE1F48
:10F8C00080B483B000AF78600E4B7B4402221A7084
:10F8D0007B680D4A7A445A607B6801221A700B4B90
:10F8E0007B44DB689AB27B689A81094B7B449B68B6
:10F8F0009AB27B685A81002318460C37BD465DF8E2
:10F90000047B7047143AFE1F303AFE1F003AFE1F78
:10F91000F439FE1F80B584B000AF78601F4B7B4484
:10F920001B699AB27B685A811D4B7B445B699AB212
:10F930007B689A811B4B7B441B78002B24D01A4B8D
:10F940007B441B7883F00103DBB2002B1CD0FFF754
:10F9500089FE0346002B17D07B6802221A72134BD4
:10F960007B440422DA700021114B7B44184602F0DC
:10F97000CAFBF860FB68002B01D0FB6809E00D4B67
:10F980007B4405221A7003E00B4B7B4403221A7060
:10F99000002318461037BD4680BD00BFC239FE1F88
:10F9A000B639FE1FAA39FE1F703AFE1FAC39FE1F82
:10F9B000A239FE1F5E39FE1F5439FE1F80B584B088
:10F9C00000AF78601F4B7B449B699AB27B685A8179
:10F9D0001D4B7B44DB699AB27B689A811B4B7B444D
:10F9E0001B78002B24D01A4B7B441B7883F0010337
:10F9F000DBB2002B1CD0FFF735FE0346002B17D0DF
:10FA00007B6802221A72134B7B440422DA700021B5
:10FA1000114B7B44184602F076FBF860FB68002B24
:10FA200001D0FB6809E00D4B7B4406221A7003E00D
:10FA30000B4B7B4404221A70002318461037BD4636
:10FA400080BD00BF1A39FE1F0E39FE1F0239FE1F8E
:10FA5000C839FE1F0439FE1FFA38FE1FB638FE1FD4
:10FA6000AC38FE1FB0B588B000AFF860B9607A60FE
:10FA70003B60FB68002B02D07B68002B01D10E237A
:10FA800004E1844B7B4401221A70834B7B440022A7
:10FA90001A70824B7B441A467B6814461D460FCD74
:10FAA0000FC495E80F0084E80F007D4B7B440022D3
:10FAB0001A707C4B7B441A463B6813607A4B7B443C
:10FAC0001A463B6B1360794B7B444FF6FF721A80EA
:10FAD00007220021764B7B44184613F04FFB3C2253
:10FAE0000021744B7B44184613F048FBFB681A78DE
:10FAF000714B7B441A70FB689A78704B7B449A7008
:10FB0000FB68DA786E4B7B44DA70FB685A786D4B91
:10FB10007B445A706C4B7B44FA681033103292E885
:10FB2000030083E80300694B7B44FA68083308321A
:10FB300092E8030083E80300654B7B44FA681833BE
:10FB4000183292E8030083E80300FB685B6A002B2D
:10FB500031D0604B7B44604A7A445A625F4B7B44AD
:10FB60005F4A7A449A605F4B7B445B6AFA68526AE8
:10FB700012881A805C4B7B445B6AFA68526A9288EE
:10FB80009A800023FB610EE0FB685B6A9A68FB6960
:10FB900013441A78554B7B441946FB690B441A7081
:10FBA000FB690133FB61524B7B445B6A9B881A46BD
:10FBB000FB699A42E8D8FB689B6A002B3ED04D4B0C
:10FBC0007B444D4A7A449A604C4B7B444C4A7A447D
:10FBD0009A624C4B7B449B6A4B4A7A449A604B4BEB
:10FBE0007B449B6AFA68926A92889A80484B7B446D
:10FBF0009B6AFA68926A12881A800023BB610EE041
:10FC0000FB689B6A9A68BB6913441A78414B7B4432
:10FC10001946BB690B441A70BB690133BB613E4B8B
:10FC20007B449B6A9B881A46BB699A42E8D8FB686A
:10FC300093F82C20394B7B4483F82C20FB681B6AFB
:10FC4000002B12D0364B7B44364A7A441A62364B2C
:10FC50007B441B6AFA68126A52885A80334B7B4491
:10FC60001B6AFA68126A12881A80FB685B68002BAC
:10FC700004D0FB685B682E4A7A445360B9682D4B08
:10FC80007B44184602F03FFA78617B6918462037BA
:10FC9000BD46B0BD5838FE1F5338FE1F4C38FE1FFE
:10FCA0005438FE1FF438FE1FEE38FE1FDC38FE1FEE
:10FCB0002E38FE1F2838FE1F1A38FE1F1038FE1F70
:10FCC0000638FE1FFC37FE1FF637FE1FE437FE1F07
:10FCD000D237FE1FB837FE1FF037FE1FEA37FE1F70
:10FCE000F237FE1FA437FE1F9637FE1FBE37FE1FDA
:10FCF0006437FE1FB437FE1FBC37FE1F4237FE1F9E
:10FD0000A637FE1F3837FE1FA637FE1F2C37FE1FF3
:10FD10001E37FE1F7237FE1FEC36FE1FD636FE1F43
:10FD2000C636FE1F5637FE1FBC36FE1FAE36FE1F00
:10FD30009436FE1F8C36FE1F80B588B000AF034698
:10FD4000FB71774B7B441B7883F00103DBB2002B04
:10FD500001D00823E0E0734B7B441A46FB79137013
:10FD6000FFF72CFD0346002B05D06F4B7B4401228F
:10FD70001A700023D0E0072200216C4B7B44184608
:10FD800013F0FCF96A4B7B445B78002B04D0694B81
:10FD90007B441B78012B13D0674B7B449B78002B53
:10FDA00004D0664B7B441B78012B09D0644B7B4409
:10FDB0009B78002B17D0634B7B441B78022B12D10E
:10FDC000614B7B441B68002B09D0604B7B440122B4
:10FDD0001A705F4B7B441B680820984703E05D4B1B
:10FDE0007B4400221A70FB791846FFF7F9FC0346A2
:10FDF0001A46594B7B441A70584B7B441B68002BA6
:10FE000024D0574B7B441B78032B04D0554B7B44A9
:10FE10001B78042B1AD1544B7B441B78002B15D034
:10FE2000524B7B441B7883F00103DBB2002B0DD0D7
:10FE30004F4B7B4400221A704E4B7B4401221A70B8
:10FE40004D4B7B441B680720984703E04B4B7B449A
:10FE500000221A7007F10C0310220021184613F03B
:10FE60008DF900233B7300233B75454B7B441B7886
:10FE7000042B2FD802A252F823301A44104700BF97
:10FE80004D000000150000002300000031000000BC
:10FE90003F00000007F10C031846FFF7F1FCF86182
:10FEA00018E007F10C031846FFF70AFDF86111E0AE
:10FEB00007F10C031846FFF72DFDF8610AE007F182
:10FEC0000C031846FFF77AFDF86103E02D4B7B44E5
:10FED00000221A702C4B7B441B78002B0ED02B4B2E
:10FEE0007B441A7807F10C0311461846FFF7B6FB5E
:10FEF000F861FB69002B01D0FB690DE0244B7B44CA
:10FF00001B68002B07D0234B7B441B68224A7A4492
:10FF1000127810469847002318462037BD4680BD0A
:10FF20009835FE1F8735FE1F7135FE1F8835FE1F71
:10FF30005A35FE1F4F35FE1F4635FE1F3B35FE1F4F
:10FF40003235FE1F2735FE1FE635FE1F3F35FE1FEB
:10FF5000D435FE1F2B35FE1FEB34FE1FAE35FE1FC2
:10FF6000DB34FE1FD134FE1FC834FE1F8E35FE1F4A
:10FF70008035FE1F7735FE1F6635FE1F6335FE1F79
:10FF80007334FE1F1034FE1F0934FE1F2034FE1F81
:10FF9000AA34FE1FA034FE1FD033FE1F80B582B0EE
:10FFA00000AF78607B681B88112B07D01B2B09D012
:10FFB000102B0AD17868FFF797FB06E07868FFF707
:10FFC000A7FB02E07868FFF7CFFB0837BD4680BD8E
:10FFD00080B584B000AF78607B68023B012B1ED8EF
:10FFE000104B7B441B78002B18D00F4B7B44002216
:10FFF0001A700E4B7B441B781846FFF79DFEF86085
:020000022000DC
:10000000FB68002B0AD00A4B7B441B68002B05D0F1
:10001000084B7B441B68F868984700E000BF103726
:10002000BD4680BDFB32FE1FF132FE1FEB32FE1FCC
:10003000A433FE1F9A33FE1F80B582B000AF7860F4
:100040000C4B7B441B7883F00103DBB2002B01D007
:1000500008230BE0084B7B4400221A7007227968C2
:10006000064B7B44184613F07EF8002318460837E9
:10007000BD4680BDC932FE1FB532FE1FA232FE1F33
:1000800080B485B000AFF860B9607A603B60124B15
:100090007B441B7883F00103DBB2002B01D00823E3
:1000A00013E00E4B7B4400221A70BB68002B02D178
:1000B0003B68002B01D0012300E0002303F0010383
:1000C000DAB2074B7B441A70002318461437BD463A
:1000D0005DF8047B704700BF2133FE1F0D33FE1F08
:1000E000EE32FE1F80B586B002AF786039603B68A3
:1000F0009B7A0A2B07D83B681B7C0A2B03D83B68EA
:100100001B7E0A2B01D90723C5E03B681A687B6870
:100110001A603B685A687B685A603B689A7A7B68C9
:100120009A743B681A7C7B6883F878203B681A7E57
:100130007B6883F8DE207B684FF6FF72A3F8762198
:100140000123BB7241F612033B817B6803F1080275
:1001500007F108031946012001F0C1FDF860FB68B2
:10016000002B01D0FB6896E03968786801F09BFBB2
:10017000F860FB68002B01D0FB688CE03B681B7AC1
:10018000002B03D13B685B7A002B0BD03B683C33E0
:100190001946786800F0E8FDF860FB68002B01D094
:1001A000FB6878E03968786801F058FAF860FB6815
:1001B000002B01D0FB686EE03968786801F0B8FA6E
:1001C000F860FB68002B01D0FB6864E03968786850
:1001D00001F00EFBF860FB68002B01D0FB685AE0D1
:1001E0003968786800F012FFF860FB68002B01D0D6
:1001F000FB6850E03B681B7A002B1DD03B6803F185
:1002000043027B6803F5A77300931346082242F666
:100210002221786801F007F8F860FB68002B01D014
:10022000FB6838E03968786801F099F8F860FB6895
:10023000002B01D0FB682EE03B685B7A002B13D0CB
:100240003B6803F140027B6803F5AF7300931346EC
:10025000082242F63321786800F0E5FFF860FB6879
:10026000002B01D0FB6816E03968786801F01AF9B4
:10027000F860FB68002B01D0FB680CE03B683E3364
:100280001946786801F083F9F860FB68002B01D00B
:10029000FB6800E0002318461037BD4680BD80B5DE
:1002A0008CB000AFF8607B600B46FB7213463B815D
:1002B000FB689B7CFA7A9A423CD2FA7A13469B00FE
:1002C00013445B001033FA6813440433BB62FB68C9
:1002D000B3F876314FF6FF72934228D03B89FB8208
:1002E00007F1180310220021184612F047FFBB6ADD
:1002F0001B883B830123BB760023BB8307F11603D6
:100300003B627B687B62FB68B3F8763107F11802C9
:100310001146184601F0F5FCF862FB6A002B0CD17F
:10032000FB8A3A899A4208D00C23FB6205E0082335
:10033000FB6203E00723FB6200E000BFFB6A184694
:100340003037BD4680BD80B58AB000AFF8600B463F
:100350007A607B81FB68B3F876314FF6FF72934287
:1003600029D07B897B8207F11403102200211846D3
:1003700012F004FFFB68B3F84E31BB820123BB755A
:1003800000233B8307F11203FB617B683B62FB6840
:10039000B3F8763107F114021146184601F0B1FCAA
:1003A00078627B6A002B08D17B8A7A899A4204D0D2
:1003B0000C237B6201E008237B627B6A18462837A6
:1003C000BD4680BD80B584B000AF78600846114658
:1003D0001A460346FB700B463B801346BB7007F181
:1003E000080308220021184612F0C8FE3B883B8112
:1003F000BB789BB27B81BB69FB607B68B3F87601FD
:10040000FA78796813469B0013445B000B447A33F7
:100410001B8807F10802194601F070FC03461846D4
:100420001037BD4680BD80B483B000AF034639604D
:10043000FB80FB88DAB23B681A703B680133FA88AC
:10044000120A92B2D2B21A70022318460C37BD4675
:100450005DF8047B7047A0DF70471846A2DF704745
:1004600018462DE9B04F86B000AFF860B960BB68A0
:10047000002B14BF01230023DBB27B617B69002BBF
:1004800002D1002010F08AF9FB68002B14BF012371
:100490000023DBB23B613B69002B02D1002010F04E
:1004A0007DF9BB68D3E90023D2B2FB681A70FB6800
:1004B000591CBB68D3E900234FEA122A4AEA036AAF
:1004C0004FEA132B5FFA8AF30B70FB68991CBB6829
:1004D000D3E900234FEA124848EA03484FEA134998
:1004E0005FFA88F30B70FB68D91CBB68D3E9002363
:1004F000140E44EA03241D0EE3B20B70FB681A1DB0
:10050000BB68D3E9003423003B6000237B603B7869
:100510001370FB680533BA689268D2B21A70FB6830
:100520000633BA689268120AD2B21A70FB680733AF
:10053000BA689268120CD2B21A701837BD46BDE87C
:10054000B08F80B586B000AF786039600023FB754E
:100550003B68002B14BF01230023DBB23B613B69E6
:10056000002B02D1002010F019F97B68002B14BF7A
:1005700001230023DBB2FB60FB68002B02D10020CB
:1005800010F00CF9FB7D5A1CFA751A467B6813446F
:100590003A6812781A703B685888FB7D7A68134471
:1005A0001946FFF740FF03461A46FB7D1344FB75CF
:1005B0003B689888FB7D7A6813441946FFF733FF40
:1005C00003461A46FB7D1344FB753B68D888FB7DC8
:1005D0007A6813441946FFF726FF03461A46FB7D47
:1005E0001344FB75FB7D072B0CBF01230023DBB2FB
:1005F000BB60BB68002B02D1002010F0CFF8183789
:10060000BD4680BD80B594B000AFB9607B60034645
:10061000FB811346BB81BB68002B14BF0123002361
:10062000DBB2FB64FB6C002B02D1002010F0B6F8AB
:10063000BB89002B14BF01230023DBB2BB64BB6C5E
:10064000002B02D1002010F0A9F807F128031C228A
:100650000021184612F092FD97F8283043F002036B
:1006600087F828300023FB6200237B630023BB63F1
:100670000023FB6300233B64012387F84630FB899A
:10068000A7F8443007F1100303220021184612F0A6
:1006900075FD7B681B783B747B685B787B74BB7CE7
:1006A000012262F34203BB74BB7C6FF3C303BB74D0
:1006B000BB7C6FF30413BB74BB7C6FF30003BB7490
:1006C00007F1140314220021184612F057FD07F118
:1006D00044037B6107F11003BB61BB89BB8300232B
:1006E000FB83BB893B84BB687B62074B7B441888D8
:1006F00007F1140207F12801BB6DFFF7AFFE0346B7
:1007000018465037BD4680BDA42BFE1F80B58AB069
:1007100002AF78600123BB7641F60A033B8307F101
:100720001803784A7A4419460120FFF794FEF861CD
:10073000FB69002B01D0FB69E0E07B681B88002B84
:1007400012D07B6859687B681A887B683C336E4896
:100750007844009042F62920FFF754FFF861FB69C6
:10076000002B01D0FB69C9E07B681B89002B12D0EC
:100770007B68D9687B681A897B683C336348784416
:10078000009042F62420FFF73DFFF861FB69002B43
:1007900001D0FB69B2E07B681B8A002B12D07B681A
:1007A00059697B681A8A7B683C33594878440090C1
:1007B00042F62520FFF726FFF861FB69002B01D0E8
:1007C000FB699BE07B681B8B002B12D07B68D9698F
:1007D0007B681A8B7B683C334E487844009042F625
:1007E0002720FFF70FFFF861FB69002B01D0FB69A1
:1007F00084E07B681B8C002B12D07B68596A7B6875
:100800001A8C7B683C3344487844009042F626209A
:10081000FFF7F8FEF861FB69002B01D0FB696DE082
:100820007B681B8D002B12D07B68D96A7B681A8D80
:100830007B683C3339487844009042F62820FFF723
:10084000E1FEF861FB69002B01D0FB6956E07B6893
:100850001B6B002B19D07B681A6B07F1080311463C
:100860001846FFF7FEFD7B683C3307F108012C4A70
:100870007A440092082242F62320FFF7C3FEF86173
:10088000FB69002B01D0FB6938E07B685B6B002BB8
:1008900015D07B685B6B19687B685B6B1B799AB2C0
:1008A0007B683C331F487844009042F62A20FFF7CB
:1008B000A9FEF861FB69002B01D0FB691EE07B6893
:1008C0009B6B002B19D07B689A6B07F110031146C4
:1008D0001846FFF736FE7B683C3307F11001124AD9
:1008E0007A440092072242F65020FFF78BFEF8610F
:1008F000FB69002B01D0FB6900E00023184620377C
:10090000BD4680BD6C2BFE1F442BFE1F1E2BFE1F01
:10091000F82AFE1FD22AFE1FAC2AFE1F862AFE1FBF
:10092000542AFE1F262AFE1FF429FE1FA0DF70474F
:100930001846A2DF70471846A3DF70471846A4DFA9
:1009400070471846A6DF7047184680B483B000AFE2
:10095000786039603B689A887B685A820C37BD465C
:100960005DF8047B704780B483B000AF7860396075
:100970007B684FF6FF725A820C37BD465DF8047BE8
:10098000704780B584B000AF786039607B681B7DAC
:10099000002B24D03B680633FB60FB681A887B6819
:1009A0005B899A421BD1FB685B89022B17D17B685C
:1009B0001B68002B13D0FB680C33184601F025F997
:1009C0000346002B02D000233B7201E001233B725F
:1009D0007B681B6807F10802114678689847103752
:1009E000BD4680BD80B58AB000AFF860B9607A605E
:1009F000FB681B68002B0FD007233B75BA6807F113
:100A00001803106818607B687B62FB681B6807F13D
:100A100014021146F86898472837BD4680BD80B556
:100A200086B000AFF8600B467A607B810023FB75CF
:100A30001EE0FA7DF96813469B0013445B000B44EB
:100A400018331B887A899A420FD1FB7D1A460121FF
:100A500042F64D2001F05BF902467B681146198091
:100A6000C2F30F425A80012308E0FB7D0133FB757E
:100A7000FB689B7CFA7D9A42DBD30023184618372B
:100A8000BD4680BD80B586B000AFF8600B467A6089
:100A90007B810023FB751EE0FA7DF96813469B00FD
:100AA00013445B000B4414331B887A899A420FD19C
:100AB000FB7D1A46012142F64D2001F028F902463D
:100AC0007B6811461980C2F30F425A80012358E017
:100AD000FB7D0133FB75FB689B7CFA7D9A42DBD37F
:100AE0000023FB751EE0FA7DF96813469B00134452
:100AF0005B000B447A331B887A899A420FD1FB7DC5
:100B00001A46022142F64D2001F001F902467B68A7
:100B100011461980C2F30F425A80012331E0FB7D58
:100B20000133FB75FB6893F87830FA7D9A42DAD38B
:100B30000023FB751EE0FA7DF96813469B00134401
:100B40005B000B44E0331B887A899A420FD1FB7D0E
:100B50001A46032142F64D2001F0D9F802467B687F
:100B600011461980C2F30F425A80012309E0FB7D30
:100B70000133FB75FB6893F8DE30FA7D9A42DAD3D5
:100B8000002318461837BD4680BD80B584B000AF3D
:100B9000786039603B680633FB60FB681A887B68C5
:100BA000B3F86E319A4204D1F968786801F015F90A
:100BB0008BE0FB681A887B685B899A4204D1F968EC
:100BC000786801F02DF980E0FB681A887B68B3F83B
:100BD00052319A420FD10022002142F6222001F028
:100BE00096F80346BB6007F10803FA68194678686F
:100BF00001F039F969E0FB681A887B68B3F84E3177
:100C00009A420FD10022002142F6222001F07FF803
:100C10000346BB6007F108031A463968786801F09B
:100C20004CF952E0FB681A887B68B3F862319A424B
:100C30000FD10022002142F6332001F068F803466C
:100C4000BB6007F10803FA681946786801F00BF9F0
:100C50003BE0FB681A887B68B3F85E319A420FD19B
:100C60000022002142F6332001F051F80346BB6018
:100C700007F108031A463968786801F01EF924E084
:100C8000FB681B8807F1080219467868FFF7C7FE62
:100C90000346002B07D007F10803FA681946786865
:100CA00001F0E1F811E0FB681B8807F10802194622
:100CB0007868FFF7E7FE0346002B06D007F108032C
:100CC0001A463968786801F0F8F81037BD4680BDDB
:100CD00080B584B000AF786039603B680633FB6054
:100CE000FB681B78012B12D1FB685B8807F10802B7
:100CF00019467868FFF7C6FE0346002B08D007F1B7
:100D000008033A6819467868FFF76CFE00E000BFF8
:100D10001037BD4680BD80B582B000AF78603960C5
:100D20003B681B88112B0ED0112B02DC102B05D039
:100D300017E0502B0CD0512B0FD012E03968786897
:100D400001F005F80DE03968786801F037F808E03F
:100D500039687868FFF719FF03E039687868FFF7AA
:100D6000B7FF0837BD4680BD80B592B000AF786050
:100D7000396007F12C031C220021184612F0FEF9FD
:100D800097F82C3043F0020387F82C3097F82C307A
:100D900043F0040387F82C3000233B630023BB633C
:100DA0000023FB6300233B6400237B640123BB75AA
:100DB00042F64E23BB8207F110030322002118469E
:100DC00012F0DCF93B681B783B743B685B787B7402
:100DD000BB7C012262F34203BB74BB7C6FF3C30391
:100DE000BB74BB7C6FF30413BB74BB7C6FF3000359
:100DF000BB7407F1180314220021184612F0BEF943
:100E00000123FB7307F11403BB6107F11003FB61BE
:100E100001233B8400237B840123BB8407F10F0360
:100E2000BB627B6818897B680A3307F1180207F1F7
:100E30002C0100F05AFF034618464837BD4680BDD6
:100E400080B596B000AFF860B9603B601346FB8098
:100E5000BB681B7803F01003DBB2002B1FD007F137
:100E6000340303220021184612F088F997F8343031
:100E7000012262F3030387F8343097F834300122FB
:100E800062F3071387F834303B6E1B7887F83530F0
:100E900097F83630012262F3420387F8363007F1C3
:100EA00038031C220021184612F068F9BB681B7831
:100EB00087F838300023FB6300237B640023BB6486
:100EC000BB681B7803F01003DBB2002B02D007F1E4
:100ED000340300E00023FB6400233B650123BB7760
:100EE00042F64D23BB8307F1180303220021184665
:100EF00012F044F93B6E5B783B763B6E9B787B76D9
:100F0000BB7E012262F34203BB7697F86420BB7E6E
:100F100062F3C303BB76BB7E6FF30413BB76BB7E69
:100F200043F00103BB7607F1200314220021184689
:100F300012F024F907F11C033B6207F118037B62EE
:100F400000233B8500237B85FB88BB8500233B6317
:100F5000FB681889BB6E07F1200207F1380100F029
:100F6000C4FE78657B6D002B01D07B6D4AE00123C8
:100F7000BB7742F60813BB8307F118030322002155
:100F8000184612F0FBF83B6E5B783B763B6E9B7825
:100F90007B76BB7E012262F34203BB76BB7E6FF39E
:100FA000C303BB76BB7E6FF30413BB76BB7E6FF3CC
:100FB0000003BB7607F1200314220021184612F02B
:100FC000DDF807F11C033B6207F118037B6207F1B0
:100FD00014033968184600F02DFE03469BB23B858A
:100FE00000237B853B8DBB8507F114033B63BB6E00
:100FF0001888BB6E03F1080207F12003194600F0C0
:1010000077FE034618465837BD4680BD80B598B078
:1010100000AF7860396007F13C031C2200211846BC
:1010200012F0ACF897F83C3043F0020387F83C30FC
:1010300000233B640023BB640023FB6400233B6567
:1010400000237B65012387F8263042F64B23BB84BF
:1010500007F1200303220021184612F08FF83B68A5
:1010600093F82C3087F820303B6893F82D3087F8C0
:10107000213097F82230012262F3420387F82230B0
:1010800097F822306FF3C30387F8223097F82230A5
:101090006FF3041387F8223097F8223043F00103EE
:1010A00087F8223007F1280314220021184612F095
:1010B00065F807F12403BB6207F12003FB623B687C
:1010C0009B8C3B8600237B863B689B8CBB863B6866
:1010D0001B6ABB637B6818897B6803F5A27307F101
:1010E000280207F13C0100F000FEB865BB6D002B43
:1010F00001D0BB6D93E03B6893F82630002B05D000
:101100003B689B6A002B01D1072388E00023FB6525
:101110007CE0012387F8263042F60713BB8407F1F1
:10112000200303220021184612F028F897F82030F7
:10113000012262F3030387F8203097F8203002225F
:1011400062F3071387F8203097F821306FF3030319
:1011500087F8213097F821306FF3071387F8213093
:1011600097F82230012262F3420387F8223097F881
:1011700022306FF3C30387F8223097F822306FF3E1
:10118000041387F8223097F822306FF3000387F8B2
:1011900022303B689A6AFB6D9B00134407F11002F2
:1011A00007F10F01184600F0AFFDB865BB6D002BCD
:1011B00001D0BB6D33E007F128031422002118464B
:1011C00011F0DCFF07F12403BB6207F12003FB628F
:1011D000FB7B9BB23B8600237B863B8EBB8607F165
:1011E0001003BB637B68B3F844017B6803F5A67208
:1011F00007F12803194600F07BFDB865BB6D002B95
:1012000001D0BB6D0BE0FB6D0133FB653B6893F8D0
:1012100026301A46FB6D9A423FF77BAF00231846F3
:101220006037BD4680BD80B594B000AFF8607B608C
:101230000B467B8113463B8107F1300303220021DB
:10124000184611F09BFF97F83030012262F3030338
:1012500087F8303097F83030012262F3071387F8AF
:1012600030307B681B7887F8313097F832300122B4
:1012700062F3420387F8323007F134031C22002165
:10128000184611F07BFF97F8343043F0020387F8DB
:1012900034307B689B7803F00F03DBB2002B14BF64
:1012A00001230023DAB297F8343062F3C30387F8DE
:1012B000343097F8343043F0100387F8343000238B
:1012C000BB6300233B6400237B6407F13003BB64F2
:1012D0000023FB640123BB767B893B8307F1140366
:1012E00003220021184611F049FF7B685B783B75AB
:1012F0007B689B787B75BB7D012262F34203BB75E3
:10130000BB7D6FF3C303BB75BB7D6FF30413BB756C
:10131000BB7D6FF30003BB7507F11C031422002192
:10132000184611F02BFF07F11803FB6107F11403B6
:101330003B620023BB840023FB843B893B85002365
:10134000FB62FB68188907F11C0207F13401BB6DD1
:1013500000F0CBFC034618465037BD4680BD80B533
:1013600090B000AF7860396007F124031C2200219F
:10137000184611F003FF97F8243043F0020387F872
:10138000243097F8243043F0080387F8243097F886
:10139000243043F0040387F824300023BB62002389
:1013A0003B6300237B630023BB630023FB630123B8
:1013B000BB7342F63223BB8107F1080303220021ED
:1013C000184611F0DBFE3B6893F846303B723B68F1
:1013D00093F847307B72BB7A012262F34203BB72FF
:1013E000BB7A6FF3C303BB72BB7A6FF30413BB7298
:1013F000BB7A6FF30003BB7207F1100314220021C4
:10140000184611F0BBFE07F10C033B6107F108031E
:101410007B6100233B8300237B830123BB83002369
:101420003B627B6818897B6803F5AB7307F1100298
:1014300007F1240100F059FC034618464037BD4629
:1014400080BD80B584B000AF786039603B681B8890
:101450007968184600F02BFC0346FB73FB7B5A1C93
:10146000FA731A467B6813443A6892781A70FB7BC9
:101470005A1CFA731A467B6813443A68D2781A7079
:10148000FB7B042B0CBF01230023DBB2BB60BB68DA
:10149000002B02D100200FF081F9FB7B184610379A
:1014A000BD4680BD80B592B000AF7860396007F16D
:1014B00028031C220021184611F060FE97F82830FE
:1014C00043F0020387F828300023FB6200237B638C
:1014D0000023BB630023FB6300233B640123BB7435
:1014E00042F64A233B8207F10C03032200211846EF
:1014F00011F044FE3B6893F834303B733B6893F83B
:1015000035307B73BB7B012262F34203BB73BB7B31
:101510006FF3C303BB73BB7B6FF30413BB73BB7B62
:101520006FF30003BB733B6803F1300207F108035C
:1015300011461846FFF785FF034687F8473007F145
:10154000140314220021184611F018FE07F11003AD
:101550007B6107F10C03BB6197F847309BB2BB83FB
:101560000023FB83BB8B3B8407F108037B627B6812
:1015700018897B6803F5B37307F1140207F128019A
:1015800000F0B3FB034618464837BD4680BD80B522
:1015900092B000AF7860396007F12C031C22002163
:1015A000184611F0EBFD97F82C3043F0040387F850
:1015B0002C3000233B630023BB630023FB63002329
:1015C0003B6400237B640123BB7542F64C23BB8242
:1015D00007F1100303220021184611F0CFFD3B68EC
:1015E0001B783B743B685B787B74BB7C012262F3A5
:1015F0004203BB74BB7C6FF3C303BB74BB7C6FF350
:101600000413BB74BB7C6FF30003BB740023FB7338
:1016100007F1180314220021184611F0AFFD07F15D
:101620001403BB6107F11003FB6101233B8400231A
:101630007B840123BB8407F10F03BB627B6818899D
:101640007B6803F5B77307F1180207F12C0100F06E
:101650004CFB034618464837BD4680BDF0B58BB0FD
:1016600004AF786039603B689B7A002B5BD03B68A5
:10167000DB68002B57D00023FB754FE03B68DA682E
:10168000FB7DDB0013443B6107F1080301220021CD
:10169000184611F073FD3B7A43F002033B723B693D
:1016A0009B7903F00F03DBB2002B14BF012300234F
:1016B000DAB23B7A62F3C3033B723B7A43F0100326
:1016C0003B723B691D883B699E1C3B69191D3B6948
:1016D000DB79C3F30003DBB2002B14BF012300232B
:1016E000D8B2FA7D13469B0013445B0010337A682E
:1016F0001344043307F10804029301900091334628
:101700002A4621467868FFF79BFBF860FB68002BB0
:1017100001D0FB6808E0FB7D0133FB753B689B7AD9
:10172000FA7D9A42AAD3002318461C37BD46F0BD65
:10173000F0B58BB004AF786039603B681B7C002B40
:1017400051D03B685B69002B4DD00023FB7545E011
:101750003B685A69FB7DDB0013443B6107F10803DA
:1017600001220021184611F009FD3B7A43F00203E3
:101770003B723B7A43F008033B723B7A43F004032D
:101780003B723B691D883B699E1C3B69191D3B6987
:10179000DB79C3F30003DBB2002B14BF012300236A
:1017A000D8B2FA7D13469B0013445B0078337A6805
:1017B0001344023307F10804029301900091334669
:1017C0002A4621467868FFF73BFBF860FB68002B50
:1017D00001D0FB6808E0FB7D0133FB753B681B7C97
:1017E000FA7D9A42B4D3002318461C37BD46F0BD9B
:1017F000F0B58BB004AF786039603B681B7E002B7E
:101800004CD03B68DB69002B48D00023FB7540E0DF
:101810003B68DA69FB7DDB0013443B6107F1080399
:1018200001220021184611F0A9FC3B7A43F0020383
:101830003B723B7A43F008033B723B691D883B696E
:101840009E1C3B69191D3B69DB79C3F30003DBB2C6
:10185000002B14BF01230023D8B2FA7D13469B004E
:1018600013445B00E0337A68134407F108040293E1
:101870000190009133462A4621467868FFF7E0FA46
:10188000F860FB68002B01D0FB6808E0FB7D0133AA
:10189000FB753B681B7EFA7D9A42B9D3002318463C
:1018A0001C37BD46F0BD80B586B000AF78603960AA
:1018B0000023FB7515E07B6818893B689A6BFB7DFC
:1018C0005B0013441B8807F10E02194600F00AFA68
:1018D00038613B69002B01D03B6909E0FB7D013396
:1018E000FB753B6893F83630FA7D9A42E3D30023C8
:1018F00018461837BD4680BD80B584B000AF78600B
:101900007B681B88112B27D01A2B2BD0102B51D181
:1019100000F01AFF7B689B88184600F0A3FE034680
:1019200083F00103DBB2002B03D004200EF036FF5E
:1019300040E07B68DB7B022B0CBF01230023FB73A1
:101940007B689A88FB7B1D4979444C311C4878445C
:1019500004300EF0DEF92DE07B689B88184600F01D
:10196000DDFE27E07B689A887B681B7AC3F303134C
:10197000DBB2012BCCBF01230023DBB21149794438
:1019800050311148784404300EF0C3F97B689A88CE
:101990007B681B7AC3F30313DBB2022BCCBF01239A
:1019A0000023DBB2094979445431094878440430B2
:1019B0000EF0AFF91037BD4680BD00BF9018FE1F76
:1019C0008A18FE1F5A18FE1F5418FE1F3218FE1FD9
:1019D0002C18FE1F80B584B000AF0346FB800023A7
:1019E000FB73124B7B445B6CFA881946104B7B44AB
:1019F000181D0EF0EDF90346002B12D00D4B7B4461
:101A0000DB6CFA8819460C4B7B44181D0EF0E0F98C
:101A10000346BB73BB7B002B01D0022300E00123F4
:101A2000FB73FB7B18461037BD4680BDF417FE1FC5
:101A3000EA17FE1FDA17FE1FD017FE1F80B582B00F
:101A400000AF0346FB80074B7B441B6DFA881946A9
:101A5000054B7B44181D0EF0BBF9034618460837AA
:101A6000BD4680BD9017FE1F8617FE1F80B582B051
:101A700000AF0346FB80074B7B445B6DFA88194639
:101A8000054B7B44181D0EF0A3F903461846083792
:101A9000BD4680BD6017FE1F5617FE1F80B582B081
:101AA00000AF7860064B7B445B6C78681A46054B48
:101AB0007B44191D0EF0B4F978680837BD4680BD27
:101AC0003217FE1F2817FE1F80B582B000AF00231B
:101AD000FB7112E0FB79184600F072FE034683F0BA
:101AE0000103DBB2002B05D0FB79184600F082FE23
:101AF000FB7906E0FB790133FB71FB79172BE9D900
:101B0000182318460837BD4680BD000080B582B056
:101B100000AF03460A46FB8013467B717B7918466B
:101B200000F04EFE0346002B0FD07B79094A7A4421
:101B300014339B0013449B68FA881946064B7B4478
:101B4000181D0EF045F9034600E00023184608373B
:101B5000BD4680BDAA16FE1F9A16FE1F80B582B034
:101B600000AF0346FB800B467B7113463B717B79CC
:101B7000184600F025FE0346002B0ED07B79143367
:101B80009B00074A7A44134403F108013B79FA8821
:101B90000448784404300EF0BCF80837BD4680BDD8
:101BA0005416FE1F4616FE1F80B582B000AF0346D6
:101BB000FB71FB79184600F003FE0346002B07D0AB
:101BC000FB79064A7A4414339B0013449B6800E077
:101BD000002318460837BD4680BD00BF1416FE1FFF
:101BE00080B483B000AF78607B681B781AB27B68E2
:101BF00001331B781B021BB213431BB29BB2184666
:101C00000C37BD465DF8047B704780B584B000AFEB
:101C100078607868FFF7E4FF0346FB81FB8903F0F7
:101C20000103002B14BF01230023DBB21846103739
:101C3000BD4680BD80B584B000AF786039600023B8
:101C4000FB73FB7B5A1CFA731A467B6813443A6891
:101C500012781A70FB7B5A1CFA731A467B6813447D
:101C60003A6852781A70FB7B022B0CBF01230023C9
:101C7000DBB2BB60BB68002B02D100200EF08EFDF2
:101C8000FB7B18461037BD4680BD80B582B000AFE3
:101C900078603960386811F0C5FA03469AB27B68FB
:101CA0001A807B683A685A600837BD4680BD80B4A8
:101CB00083B000AF03463960FB80FB88DAB23B6833
:101CC0001A703B680133FA88120A92B2D2B21A70C3
:101CD000022318460C37BD465DF8047B7047A0DF31
:101CE00070471846A1DF70471846A2DF70471846B4
:101CF000A3DF70471846A4DF70471846A5DF70477A
:101D00001846A6DF7047184664DF7047184680B44F
:101D100085B000AF0346FB800B467B7113463B71D9
:101D20000023BB60FB883B817B79BB723B79FB72F4
:101D3000BB68FB600023BA8962F30F03FA8962F380
:101D40001F4318461437BD465DF8047B704780B5C5
:101D500086B000AF786039603B689A887B68A3F8EA
:101D600076217B685B89002B25D00123FB7407F16A
:101D7000080308220021184611F000FA01233B81D4
:101D800000237B8107F11303FB607B68B3F87601C6
:101D90007B685B8907F108021946FFF7ACFF7861A1
:101DA0007B69002B07D07B685B68002B03D07B68C6
:101DB0005B68786998471837BD4680BD80B483B0AA
:101DC00000AF786039607B684FF6FF72A3F8762128
:101DD0000C37BD465DF8047B704780B588B000AF16
:101DE000786039603B685B89012B16D17B681B6882
:101DF000002B12D03B681B7B002B02D0012B03D0A1
:101E00000BE000233B7301E001233B737B681B68FD
:101E100007F10C021146786898472037BD4680BD0F
:101E200080B588B000AF786039603B685B89012B72
:101E300016D17B681B68002B12D03B681B7B002BE4
:101E400002D0012B03D00BE005233B7301E00623F6
:101E50003B737B681B6807F10C0211467868984752
:101E60002037BD4680BD80B58AB000AFF860B9604C
:101E70007A607B685B89022B1CD1FB681B68002B96
:101E800018D07B680C331846FFF7BFFE0346002BC3
:101E900002D002233B7501E003233B75BA6807F1CA
:101EA000180310681860FB681B6807F114021146DC
:101EB000F86898472837BD4680BD80B58AB000AF26
:101EC000F860B9607A60FB681B68002B16D00423A9
:101ED0003B757A6807F1180310681860BB68DB89E6
:101EE000BB83BB681B8AFB83BB6812333B62FB6806
:101EF0001B6807F114021146F86898472837BD4659
:101F000080BD80B588B002AFF860B9607A60002308
:101F10007B617B681B887B827B6800221A80FB6860
:101F200093F82D30002B0BD07B8A1A467968B8685D
:101F300000F0DDFE78617B69002B01D07B69BAE09F
:101F4000FB689B78002B0BD07B8A1A467968B868AF
:101F500000F0C1FF78617B69002B01D07B69AAE0AA
:101F6000FB68DB78002B0DD0FB68DB7858B27B8AEE
:101F70007A68B96800F0FBFF78617B69002B01D0BB
:101F80007B6998E0FB685B68002B0ED0FB685B68A0
:101F900093F900007B8A7A68B96801F028F87861C3
:101FA0007B69002B01D07B6985E0FB681B89002BD6
:101FB00011D0FB6803F108007B8A01937B680093D2
:101FC000BB680622022101F0EEF878617B69002BE4
:101FD00001D07B696FE0FB681B8A002B11D0FB6886
:101FE00003F110007B8A01937B680093BB68072292
:101FF000032101F0D8F878617B69002B01D07B695F
:1020000059E0FB681B8B002B11D0FB6803F1180013
:102010007B8A01937B680093BB681522142101F031
:10202000C2F878617B69002B01D07B6943E0FB68D3
:102030001B6A002B0CD0FB68186A7B8A7A68B96827
:1020400001F020F978617B69002B01D07B6932E0D7
:10205000FB685B6A002B0CD0FB68586A7B8A7A6845
:10206000B96801F06EF978617B69002B01D07B695A
:1020700021E0FB6893F82C30002B0BD07B8A7A6828
:10208000B968F86801F0CCF978617B69002B01D060
:102090007B6910E0FB681B78002B0BD07B8A7A6889
:1020A000B968F86800F08AFE78617B69002B01D07E
:1020B0007B6900E07B6918461837BD4680BD80B457
:1020C00083B000AF78607B68DB7803F00403002BFB
:1020D00001D1072300E0002318460C37BD465DF808
:1020E000047B704780B483B000AF78607B68DB7896
:1020F000002B01D0072300E0002318460C37BD4613
:102100005DF8047B704780B596B000AF78603960A9
:102110001F23A7F84A301F23A7F848307B68002BFD
:102120001AD07868FFF7CBFFF864FB6C002B01D066
:10213000FB6C44E007F14A0207F12803194678686E
:10214000FFF7DFFEF864FB6C002B01D0FB6C36E080
:1021500007F128037B6504E000237B650023A7F8D3
:102160004A303B68002B1AD03868FFF7BBFFF86491
:10217000FB6C002B01D0FB6C21E007F1480207F15A
:10218000080319463868FFF7BCFEF864FB6C002BA7
:1021900001D0FB6C13E007F108033B6504E000236A
:1021A0003B650023A7F84830B7F84A30D9B2B7F8F2
:1021B0004830DBB23A6D786D00F075FD0346184685
:1021C0005837BD4680BD75DF7047184676DF7047CB
:1021D00018467ADF704718467BDF704718460000C4
:1021E00080B483B000AF78607B685A880A4B7B4428
:1021F0001B889A4208D37B685A88084B7B445B88CB
:102200009A4201D8012300E0002318460C37BD464E
:102210005DF8047B704700BFB20FFE1FA40FFE1FC6
:1022200080B586B000AF78602F4B7B441B884FF69B
:10223000FF72934255D02D4B7B441B780133DAB2A9
:102240002B4B7B441A702B4B7B441A7B2A4B7B44D1
:102250001B789A4217D3294B7B441B88284A7A441F
:1022600011461846FFF7AFFF78617B69002B37D026
:10227000244B7B449B69002B32D0234B7B449B69CE
:10228000786998472DE0214B7B4400221A70204B3F
:102290007B441B7C002B14D01E4B7B441B883B21B2
:1022A0001846FFF793FF38613B69002B09D01A4BA2
:1022B0007B449B69002B04D0184B7B449B69386995
:1022C0009847174B7B445B69002B0AD000233B7374
:1022D000144B7B445B6907F10C021046984700E001
:1022E00000BF1837BD4680BD800FFE1F700FFE1F58
:1022F000660FFE1F3C0FFE1F5A0FFE1F520FFE1FE0
:10230000420FFE1F120FFE1F080FFE1F200FFE1FA1
:10231000F40EFE1F100FFE1FD40EFE1FCA0EFE1F6E
:10232000C00EFE1FB20EFE1FB0B584B000AF7860C5
:10233000234B7B441A467B6814461D460FCD0FC4C1
:1023400095E8070084E807001E4B7B4400221A70C2
:102350007B681B68002B11D07B681A681A4B7B4482
:102360001068516803C3194B7B441846FFF731FFCF
:10237000F860FB68002B0CD0FB681DE0144B7B441D
:102380001846FFF729FFF860FB68002B01D0FB68B7
:1023900012E0104B7B444FF6FF721A800E4B7B44C9
:1023A00000221A700D4B7B441A4600210C4B7B44D3
:1023B00018460DF025FB034618461037BD46B0BD44
:1023C000520EFE1F8A0EFE1F420EFE1F380EFE1F0B
:1023D000220EFE1F160EFE1F0A0EFE1F77FEFFFFC7
:1023E000DEFCFD1F80B584B000AF2C4B7B4418464B
:1023F000FFF7F6FE034683F00103DBB2002B36D075
:10240000274B7B441B78002B0DD0264B7B445B690C
:10241000002B3AD000233B70234B7B445B693A4648
:102420001046984731E0214B7B441B78002B04D1A8
:102430001F4B7B445B68FB6003E01E4B7B449B6847
:10244000FB601D4B7B440022F96818460DF00CFB25
:10245000B860BB68002B18D0184B7B449B69002BDD
:1024600013D0174B7B449B69B86898470EE0154B17
:102470007B445B69002B09D001233B71124B7B44E9
:102480005B693A1D1046984700E000BF0F4B7B4444
:1024900000221A701037BD4680BD00BFC00DFE1F60
:1024A000D20DFE1F780DFE1F6A0DFE1F800DFE1F50
:1024B000520DFE1F480DFE1F700DFE1F2A0DFE1F40
:1024C000200DFE1F140DFE1F060DFE1F460DFE1FE4
:1024D00080B582B000AF78607B689A880C4B7B44F3
:1024E0001A800C4B7B441A467B68103393E8030038
:1024F00082E80300084B7B4400221A70074B7B44A0
:10250000DB89002B01D1FFF76DFF0837BD4680BD89
:10251000CC0CFE1FC80CFE1FB20CFE1F860CFE1F4B
:1025200080B584B000AF78600F4B7B444FF6FF72EC
:102530001A800E4B7B4400221A700D4B7B441846C8
:102540000DF0C6FAF860FB68002B09D0094B7B44FC
:102550009B69002B04D0084B7B449B69F868984723
:102560001037BD4680BD00BF800CFE1F740CFE1FDF
:10257000780CFE1F360CFE1F2C0CFE1F80B584B09D
:1025800000AF78607B680633FB60FB681A88154BE8
:102590007B44DB899A4221D1FB685B89022B1DD1E8
:1025A000FB680C331846FFF730FB0346002B02D0C4
:1025B000FFF718FF12E00C4B7B4418460DF088FA29
:1025C000B860BB68002B09D0084B7B449B69002B8B
:1025D00004D0074B7B449B69B86898471037BD46C9
:1025E00080BD00BFF40BFE1FFC0BFE1FBA0BFE1FCD
:1025F000B00BFE1F80B582B000AF7860064B7B4405
:102600001A467B68083393E8030082E80300FFF76B
:10261000E9FE0837BD4680BDAE0BFE1F80B582B017
:1026200000AF78607B681B88112B0DD0112B02DC6A
:10263000102B05D013E0122B0ED0502B08D00EE03B
:102640007868FFF745FF0AE07868FFF769FF06E062
:102650007868FFF793FF02E07868FFF7CBFF083751
:10266000BD4680BD80B584B000AF0346FB80184BEB
:102670007B445B6CDB4318460DF02EFB0346FB816D
:10268000FB894FF6FF7293421CD0FB89114A7A44B2
:102690005B001344FA889A80FA8801230E49794432
:1026A00048310E48784404300DF033FBFA8801239A
:1026B0000B49794444310B48784404300DF029FB30
:1026C000012300E0002318461037BD4680BD00BF3F
:1026D000680BFE1F4A0BFE1F3A0BFE1F340BFE1F3A
:1026E000260BFE1F200BFE1F80B584B002AF0346F1
:1026F000FB80FA880023009313461D220549794484
:1027000044310548784404300DF01AFB0837BD46C3
:1027100080BD00BFDA0AFE1FD40AFE1F80B582B05A
:1027200000AF0346FB80FA8800230549794448310D
:102730000448784404300DF0ECFA0837BD4680BDFB
:10274000AC0AFE1FA60AFE1F80B5A4B000AF194B4D
:102750007B449B6CDA43184B7B445B6C13403846DC
:102760001A46164B7B44191D0DF05AFB07F148031E
:1027700039464422184610F0F6FC0023C7F88C3086
:102780000FE0D7F88C305B0007F19002134433F868
:10279000443C1846FFF7A8FFD7F88C300133C7F840
:1027A0008C30BA6CD7F88C309A42EAD89037BD4654
:1027B00080BD00BF880AFE1F800AFE1F740AFE1F2C
:1027C00080B483B000AF0346FB71094B7B441B68A8
:1027D000FA79012101FA02F21340002B14BF012300
:1027E0000023DBB218460C37BD465DF8047B70470A
:1027F0000C0AFE1F80B483B000AF0346FB71084B88
:102800007B441B68FA79012101FA02F21343054A5D
:102810007A4413600C37BD465DF8047B704700BFF7
:10282000D809FE1FC809FE1F80B586B000AF034659
:102830003960FB80FB883A68DB0013441B7B9BB24A
:10284000BB81FB883A68DB0013441B7B9BB2FB8196
:1028500000233B8200237B8207F10C01FB880022CE
:10286000184601F0E7FA78617B69002B06D0FA88F8
:102870007B690449794401200BF09EFA1837BD4664
:1028800080BD00BF2020010080B586B000AF786019
:1028900039603B689B88FB82FB8ADB007A681344C3
:1028A00006333B617B681A793B699A713B68DB7B35
:1028B000012B02D0022B05D008E07B681A883B6907
:1028C0001A8003E07B685A883B691A803B691A8842
:1028D0003B695B889A421CD93B691A88FB8A11467E
:1028E000184601F0AAFAF860FB68002B03D13B6997
:1028F00001225A710DE0FB68112B03D13B690122C3
:102900001A7106E0FA680A4B7B44194601200BF065
:1029100040FA3B699A793B69DB799A4204D9FB8A90
:1029200079681846FFF780FF1837BD4680BD00BFA5
:102930000020010080B582B000AF786039603B684C
:102940009B88DB007A6813440633184601F07BFA53
:102950000837BD4680BD80B586B000AF786039606D
:102960003B689B88FB823B685B89BB82FB8ADB0000
:102970007A68134406333B613B691A88BB8A9342E9
:1029800028BF13469AB23B695A803B695B88172B74
:1029900038BF17239AB23B695A807B689B69002B2A
:1029A00012D03B695B79002B0ED040F677233B8138
:1029B000FB8A7B813B695B88BB817B689B6907F1F4
:1029C00008021146786898473B6900225A713B69B2
:1029D00000221A711837BD4680BD000080B588B04E
:1029E00000AF786039603B689B88FB833B68DB887D
:1029F000BB83FB8BDB007A6813440633BB61BB8B64
:102A0000172B38BF1723BB83BB691A88BB8B934234
:102A100028BF13469AB2BB695A80BB6900221A715B
:102A2000BB691A88FB8B1146184601F009FA7861D8
:102A30007B69002B06D07A690F4B7B441946012035
:102A40000BF0A7F9BB695B79002B12D17B689B69FE
:102A5000002B0ED040F67723BB81FB8BFB81BB693B
:102A60005B883B827B689B6907F10C0211467868A2
:102A700098472037BD4680BD2A1F0100B0B592B0EF
:102A800000AF786039603B6807F110041D1D0FCD61
:102A90000FC40FCD0FC40FCD0FC42B6823603B8A2A
:102AA000A7F84630B7F84630BA8AD1B27A68DB0068
:102AB00013440A465A737B689B69002B18D007F1B0
:102AC000080300221A609A804DF67A233B81B7F8FA
:102AD00046307B81B7F846307A68DB0013445B7B75
:102AE0003B737B689B6907F1080211467868984739
:102AF0004837BD46B0BD000080B588B000AF7860F3
:102B000039603B680433FB61FB691B88DB007A6832
:102B100013440633BB61FB699B88FB75BB699A79DB
:102B2000FB7D934228BF1346BB7507F108030022C3
:102B30001A605A60BB7D9BB23B81BB7D9BB27B819F
:102B4000FB691B8807F108010022184601F072F9A1
:102B500038613B69002B06D03A69044B7B44194627
:102B600001200BF016F92037BD4680BD601E010024
:102B700080B584B000AF786039607B68002B01D1EC
:102B80000E231DE07B683A689A617B6817221A80E1
:102B90007B6817225A807B681B221A710023FB6016
:102BA0000AE0FB68DB007A6813440633184601F03C
:102BB0004AF9FB680133FB60FB68012BF1D9002364
:102BC00018461037BD4680BD80B584B000AF786030
:102BD00039603B689B88FB81FB89012B5AD83B6895
:102BE0001B88212B26D0212B04DC102B09D0112B84
:102BF0000CD023E03A2B0ED0552B11D0222B14D021
:102C00001CE039687868FFF73FFE17E0396878689C
:102C1000FFF790FE12E039687868FFF79CFE0DE040
:102C200039687868FFF7DAFE08E039687868FFF7F6
:102C300025FF03E039687868FFF75EFFFB897A6853
:102C4000DB0013449B7A002B24D0FB897A68DB00DD
:102C50001344DA88FB891146184601F0EEF8B86093
:102C6000BB68002B0CD1FB897A68DB00134400227F
:102C70009A72FB897A68DB0013440122DA7209E058
:102C8000BB68112B06D0BA68044B7B44194601205F
:102C90000BF07FF81037BD4680BD00BF7E1C0100E1
:102CA0006DDF7047184672DF7047184679DF70474E
:102CB00018467DDF7047184664DF7047184680B4B9
:102CC00083B000AF03463960FB80FB88DAB23B6813
:102CD0001A703B680133FA88120A92B2D2B21A70A3
:102CE000022318460C37BD465DF8047B704780B55B
:102CF00088B000AFF860B9601346FB80BB681B88E2
:102D000003F10902FB889A4201D90C2352E007F132
:102D100014031846FFF7C4FFF861FB69002B01D0CC
:102D2000FB6947E0BB681B881A46FB68134408220E
:102D30001A70BB681B8801339AB2BB681A80BB68E3
:102D40001B881A46FB6813441B221A70BB681B8839
:102D500001339AB2BB681A80BB681B881A46FB68AD
:102D6000981807F1140301330622194610F0FBF9F5
:102D7000BB681B8806339AB2BB681A803B7D23F080
:102D80000103DBB2002B07D1BB681B881A46FB6826
:102D9000134400221A7006E0BB681B881A46FB68C1
:102DA000134401221A70BB681B8801339AB2BB68B6
:102DB0001A80002318462037BD4680BD80B588B0F4
:102DC00000AFF860B9607A607B80FB681B78012BEC
:102DD00005D1FB685B78002B01D1072377E07B6886
:102DE0001B889A1C7B889A420DD8FB681B78012BA4
:102DF0000BD17B681B881A46FB685B7813449A1CCE
:102E00007B889A4201D90C2361E07B681B887A8811
:102E1000D31A9BB2023BBB83BB8BFB827B681B88B4
:102E20000233BA68134407F1160211461846FFF739
:102E300040FFB861BB69002B01D0BB6947E0FB686C
:102E40001B78022B06D1FB8ABA8B9A4202D3092344
:102E5000FB7712E00823FB77FB681B78012B0AD174
:102E6000FB685B789BB2BA8B9A4204D3FB685B78B1
:102E70009BB2FB8201E0BB8BFB82FB8AFE2B01D95C
:102E80000C2324E07B681B881A46BB681344FA8A2B
:102E9000D2B20132D2B21A707B681B8801339AB267
:102EA0007B681A807B681B881A46BB681344FA7FCC
:102EB0001A707B681B8801339AB27B681A807B6822
:102EC0001A88FB8A13449AB27B681A80002318463A
:102ED0002037BD4680BD80B586B000AFF860B960D0
:102EE0001346FB80BB681B881A1DFB889A4201D9D8
:102EF0000C2338E007F112031846FFF7D7FE78617C
:102F00007B69002B01D07B692DE0BB681B881A46CA
:102F1000FB68134403221A70BB681B8801339AB202
:102F2000BB681A80BB681B881A46FB6813441922C9
:102F30001A70BB681B8801339AB2BB681A807A8A00
:102F4000BB681B881946FB680B4419461046FFF7FF
:102F5000B6FE03461946BB681A888BB213449AB270
:102F6000BB681A80002318461837BD4680BD80B460
:102F700085B000AFB9607A601A460346FB7313460A
:102F8000BB817B681B88DA1CBB899A4201D90C2360
:102F900027E07B681B881A46BB68134402221A701C
:102FA0007B681B8801339AB27B681A807B681B8818
:102FB0001A46BB68134401221A707B681B880133D0
:102FC0009AB27B681A807B681B881A46BB681344D8
:102FD000FA7B1A707B681B8801339AB27B681A806F
:102FE000002318461437BD465DF8047B704780B453
:102FF00085B000AFB9607A601A460346FB7313468A
:10300000BB817B681B88DA1CBB899A4201D90C23DF
:1030100027E07B681B881A46BB68134402221A709B
:103020007B681B8801339AB27B681A807B681B8897
:103030001A46BB6813440A221A707B681B88013346
:103040009AB27B681A807B681B881A46BB68134457
:10305000FA7B1A707B681B8801339AB27B681A80EE
:10306000002318461437BD465DF8047B704780B5D1
:103070008AB000AFF8607B600B46FB721346BB72F0
:10308000002387F823303B6B1B883B8400237B6243
:1030900068E0FB685A687B6A9B001A4407F11003DA
:1030A0001068186007F1170107F110030022184695
:1030B000FFF702FEF861FB69002B01D0FB696EE0AF
:1030C000FB7DBA7A9A424AD197F82330002B01D07F
:1030D000002300E00223FB763B6B1B881A46FB7D36
:1030E0001A44FB7E1A44BB8E9A4201DD0C2356E043
:1030F00097F8233083F00103DBB2002B15D03B6B34
:103100001B8801339AB23B6B1A803B6B1B881A46B3
:103110007B681344FA7A1A703B6B1B8801339AB2AE
:103120003B6B1A80012387F823303B6B1B881A46C0
:103130007B681A4407F1170107F110031846FFF7DF
:10314000BBFDF861FB69002B01D0FB6927E03B6BFD
:103150001A88FB7D9BB213449AB23B6B1A807B6A40
:1031600001337B62FB681B881A467B6A9A4290DCBB
:1031700097F82330002B11D03B6B1A883B8CD31A65
:103180009BB2013B3B833B8BFF2B01D90C2306E019
:103190003B8C7A6813443A8BD2B21A7000231846DB
:1031A0002837BD4680BD80B588B002AFF8607B602F
:1031B0000B46FB721346BB72F97ABB8C01933B6AD8
:1031C00000937B680222F868FFF751FF78617B6902
:1031D000002B01D07B6910E0B97ABB8C01933B6A6C
:1031E00000937B681022F868FFF741FF78617B69E4
:1031F000002B01D07B6900E0002318461837BD463C
:1032000080BD80B483B000AF78607B681B88052BDD
:103210000AD97B681B88B3F5486F07D97B681B8880
:103220004FF6FF72934201D0072325E07B685B884D
:10323000052B0AD97B685B88B3F5486F07D97B6893
:103240005B884FF6FF72934201D0072314E07B683E
:103250001B884FF6FF7293420DD07B685B884FF658
:10326000FF72934207D07B681A887B685B889A421A
:1032700001D9072300E0002318460C37BD465DF84E
:10328000047B704780B586B000AFF860B9607A60A3
:103290007B807B681B889A1D7B889A4201D90C230E
:1032A0004BE0F868FFF7ADFF78617B69002B01D038
:1032B0007B6942E07B681B881A46BB681344052281
:1032C0001A707B681B8801339AB27B681A807B680E
:1032D0001B881A46BB68134412221A707B681B882D
:1032E00001339AB27B681A80FB681A887B681B8856
:1032F0001946BB680B4419461046FFF7E0FC03462D
:1033000019467B681A888BB213449AB27B681A807C
:10331000FB685A887B681B881946BB680B441946B2
:103320001046FFF7CCFC034619467B681A888BB21F
:1033300013449AB27B681A80002318461837BD469A
:1033400080BD80B586B000AFF860B9607A607B80E0
:10335000FB689B8802337B617B681B881A467B690C
:1033600013449A1C7B889A4201D90C2354E07B6950
:10337000FE2B01D90C234FE07B681B881A46BB68E3
:1033800013447A69D2B20132D2B21A707B681B88B8
:1033900001339AB27B681A807B681B881A46BB6827
:1033A0001344FF221A707B681B8801339AB27B6832
:1033B0001A80FB681A887B681B881946BB680B4417
:1033C00019461046FFF77BFC034619467B681A88AE
:1033D0008BB213449AB27B681A80FB689B88002BDF
:1033E00019D0FB689B68002B01D1072314E07B6890
:1033F0001B881A46BB689818FB689968FB689B880D
:103400001A460FF0B0FE7B681A88FB689B8813444D
:103410009AB27B681A80002318461837BD4680BDD3
:1034200080B588B000AFF860B9607A607B80FB68D7
:103430009B6A002B01D107236DE00023FB7763E03B
:10344000FB68996AFA7F13465B0013449B000B44A8
:10345000BB61BB699B8802337B617B69FE2B01D911
:103460000C2358E07B681B881A46BB6813447A69B2
:10347000D2B20132D2B21A707B681B8801339AB281
:103480007B681A807B681B881A46BB681344162227
:103490001A707B681B8801339AB27B681A80BB69FB
:1034A0001A887B681B881946BB680B44194610466E
:1034B000FFF705FC034619467B681A888BB2134454
:1034C0009AB27B681A80BB699B88002B19D0BB69B4
:1034D0009B68002B01D107231DE07B681B881A46DF
:1034E000BB689818BB699968BB699B881A460FF03E
:1034F0003AFE7B681A88BB699B8813449AB27B6842
:103500001A80FB7F0133FB77FB6893F82C30FA7F3E
:103510009A4295D3002318462037BD4680BD00004F
:1035200080B584B000AF03463960FB8013467B71E1
:103530000023FB730023BB733B68862B05D03B68DD
:10354000112B02D03B68002B4AD13B68862B04D15B
:103550000023BB730123FB730EE03B68112B04D1E6
:103560000123BB730023FB7306E03B68002B03D1F0
:103570000023BB730023FB737B79002B20D01A4BF5
:103580007B441978FA7BFB881846FEF7E7FA174B5D
:103590007B441978BA7BFB881846FEF7DFFA144B98
:1035A0007B441978FB8800221846FEF7D7FA114BA6
:1035B0007B441978FB8800221846FEF7CFFA0FE00B
:1035C0000D4B7B441978FA7BFB881846FEF7C6FA48
:1035D0000A4B7B441978BA7BFB881846FEF7BEFA83
:1035E0001037BD4680BD00BF08EBFD1FF7EAFD1F89
:1035F000E4EAFD1FD3EAFD1FC2EAFD1FB1EAFD1F89
:1036000080B586B000AF03463960FB803B68002B75
:103610001FD03B68112B1CD007F10C0300221A604D
:103620005A609A60FB88FB813B683B613B680D2BCD
:1036300002D10B233B7307E03B68862B02D10A23A0
:103640003B7301E009233B7307F10C03184601F0BB
:103650004FFA1837BD4680BD90B585B000AF04461F
:10366000084611461A462346FB8003467B710B46EB
:103670003B711346FB707B7983F00103DBB2002BB7
:1036800009D0344B7B441B7883F00103DBB2002B61
:1036900001D0052359E07B79002B07D03A79FB88CC
:1036A0000021184601F09BF9F86007E03A79FB88A1
:1036B00029497944184601F092F9F860FB88002204
:1036C000F9681846FFF72CFFFB78002B04D0FB8825
:1036D000F9681846FFF794FFFB680D2B34D00D2BCB
:1036E00004D8002B30D0082B2ED02BE0862B18D0FE
:1036F00043F20202934227D0112B23D1174B7B4474
:1037000019787A79FB881846FEF728FA144B7B441F
:1037100019783A79FB881846FEF720FA0023FB60F7
:1037200012E0104B7B4419787A79FB881846FEF733
:1037300015FA0D4B7B4419783A79FB881846FEF749
:103740000DFA01E00323FB60FB6818461437BD4601
:1037500090BD00BFF9FAFD1FC6FAFD1F88E9FD1FE5
:1037600077E9FD1F62E9FD1F51E9FD1F80B586B0B5
:1037700000AF0346FB8007F10C030C220021184622
:103780000FF0FCFC0C233B73FB88FB8107F10C035F
:10379000184601F0ADF91837BD4680BD80B584B03C
:1037A00000AF0346FB80FB881846FEF713F903467B
:1037B000012B16D1FB88184604F0A0FC03461A46DC
:1037C0004FF6FF739A420CD0234B7B441978FB8849
:1037D00001221846FEF7C2F9FB881846FFF7C6FF1C
:1037E00007E01E4B7B441978FB8800221846FEF741
:1037F000B5F91B4B7B441B78002B18D0194B7B442D
:103800001A78FB8811461846FEF780F9034683F0C4
:103810000103DBB2002B0AD0134B7B441A68FB88F0
:1038200012497944184600F07FFEF86006E0FB88F4
:1038300000220021184600F077FEF860FB88012284
:10384000F9681846FFF76CFEFB88F9681846FFF721
:10385000D7FE1037BD4680BDBFE8FD1FA5E8FD1FA0
:1038600089F9FD1F8BE8FD1F66F9FD1F56F9FD1F45
:1038700080B588B000AF78607B681B78092B6CD866
:1038800002A252F823301A44104700BF290000005A
:1038900035000000A9000000A9000000A9000000F8
:1038A000A9000000A9000000A9000000A900000074
:1038B000A90000007B685B881846FFF76FFF4CE0AB
:1038C0000023FB77264B7B441B7883F00103DBB29C
:1038D000002B02D00123FB7724E0224B7B441B7892
:1038E00003F00103DBB2002B14BF01230023DBB282
:1038F0001A467B681B799A4202DA0123FB7711E0B2
:10390000194B7B441B7803F00203DBB2002B14BF7E
:1039100001230023DBB21A467B685B799A4201DA05
:103920000123FB777B685888F97F01230022FFF78A
:1039300093FEB8617B681B783B737B685B88FB8177
:103940007A6807F11003043292E8030083E8030069
:1039500007F10C03184601F0CBF82037BD4680BDB7
:10396000B7F8FD1F9CF8FD1F76F8FD1F80B598B0D5
:1039700000AF0346FB71FB791846FEF715F9B865F1
:10398000B86D01F0A5F80346002B52D007F10C03E7
:103990001846FEF783F80023FB6546E0FB6D5B00ED
:1039A00007F16002134433F8503CFA791146184687
:1039B000FEF7ACF8034687F8573097F85730002BDE
:1039C00030D0FB6D5B0007F16002134433F8503CCC
:1039D000194A7A44127811461846FEF797F80346BA
:1039E00087F85630FB6D5B0007F16002134433F833
:1039F000503C124A7A44127811461846FEF786F86F
:103A0000034687F85530FB6D5B0007F160021344F5
:103A100033F8500C97F8562097F855100123FFF70C
:103A20001BFE3865FB6D0133FB65FA68FB6D9A423E
:103A3000B4D86037BD4680BDB3E6FD1F92E6FD1FDA
:103A400080B596B000AF0346FB71FB791846FEF7D0
:103A5000ABF83865386D01F03BF80346002B2BD0EE
:103A600007F108031846FEF719F800237B651FE0ED
:103A70007B6D5B0007F15802134433F84C3CFA7934
:103A800011461846FEF742F8034687F84F3097F87C
:103A90004F30002B09D07B6D5B0007F158021344B7
:103AA00033F84C3C1846FFF779FE7B6D01337B659C
:103AB000BA687B6D9A42DBD85837BD4680BD00009E
:103AC00080B582B000AF78607B681B78092B31D855
:103AD00002A252F823301A44104700BF41000000F0
:103AE00041000000410000004100000041000000D2
:103AF00041000000410000002900000059000000C2
:103B0000590000000D4B7B441B781846FFF798FFC7
:103B10000B4B7B441B781846FFF728FF094B7B446F
:103B20001B781846FFF78CFF074B7B441B78184621
:103B3000FFF71CFF0837BD4680BD00BF82E5FD1FB3
:103B400072E5FD1F69E5FD1F59E5FD1F80B582B0D7
:103B500000AF78607B681B78182B05D1FDF7B4FFA8
:103B600003461A467B681A700837BD4680BD0000C0
:103B700080B500AF184B7B441846FFF7E7FF174BA3
:103B80007B441846FFF7E2FF154B7B441846FFF7CE
:103B9000DDFF144B7B441846FFF7D8FF124B7B44E4
:103BA0001846FFF7D3FF114B7B441846FFF7CEFFB3
:103BB0000F4B7B441846FFF7C9FF0E4B7B441B7825
:103BC000182B01D1032304E00B4B7B4401221A7014
:103BD0000023184680BD00BF0DE5FD1F04E5FD1F55
:103BE000FBE4FD1FF2E4FD1FE9E4FD1FE0E4FD1F1F
:103BF000D7E4FD1FCDE4FD1FAAF5FD1F80B582B0FF
:103C000000AF7860786800F013FF044B7B441B78AA
:103C10001846FFF7ABFE0837BD4680BD77E4FD1FB1
:103C200080B483B000AF78607B68002B01D10023A3
:103C3000AEE07B681B7803F00203DBB2002B08D1F7
:103C40007B681B7823F07F03DBB2002B01D00023BD
:103C50009EE07B681B78C3F30213DBB2042B01DD0B
:103C6000002395E07B681B7803F00203DBB2002B96
:103C70000FD07B681B7803F07003DBB2302B08D1C8
:103C80007B681B7823F07F03DBB2002B01D100237C
:103C90007EE07B685A787B689B789A4201D9002342
:103CA00076E07B685B78062B01D8002370E07B68A8
:103CB0009B78102B01D900236AE07B68DB7803F046
:103CC0000403DBB2002B06D17B681B7903F00403ED
:103CD000DBB2002B01D000235AE07B68DB7803F0D5
:103CE0000803DBB2002B06D17B681B7903F00803C5
:103CF000DBB2002B01D000234AE07B681B7803F085
:103D00000103DBB2002B1DD17B68DB7803F00103DC
:103D1000DBB2002B14D17B68DB7803F00203DBB24B
:103D2000002B0DD17B681B7903F00103DBB2002B64
:103D300006D17B681B7903F00203DBB2002B01D0B4
:103D4000002325E07B681B7803F00103DBB2002B26
:103D50001DD07B68DB7803F00103DBB2002B16D1AA
:103D60007B68DB7803F00203DBB2002B0FD17B68AA
:103D70001B7903F00103DBB2002B08D17B681B79B0
:103D800003F00203DBB2002B01D1002300E001238A
:103D900018460C37BD465DF8047B704780B582B08D
:103DA00000AF78607B68002B05D10F4B7B4400226D
:103DB0001A70002313E07868FFF732FF0346002BE8
:103DC0000CD00A4B7B447A681068186012791A711B
:103DD000074B7B4401221A70002300E0072318469A
:103DE0000837BD4680BD00BFD1F3FD1FB4F3FD1FF2
:103DF000ABF3FD1F80B582B000AF03463960FB8096
:103E00000B4B7B4419783B681B78002B14BF0123B4
:103E10000023DBB283F00103DBB203F00103DAB26B
:103E2000FB881846FDF79AFE0837BD4680BD00BFE7
:103E300087E2FD1F8FDF704718469EDF70471846E8
:103E4000ADDF7047184680B483B000AF78607B6800
:103E500017221A807B6817225A807B6800221A7109
:103E60007B6800225A717B681B229A717B681B2237
:103E7000DA710C37BD465DF8047B704780B586B0BB
:103E800000AF78607B681B78002B1AD17B681B79A8
:103E9000072B16D107F10C0300221A605A609A60B2
:103EA00007233B737B685B88184602F049FE034694
:103EB000FB817B685B883B8207F10C03184600F0AE
:103EC00029FF1837BD4680BD80B586B000AF786049
:103ED00007F10C0300221A605A609A607B681B8805
:103EE000FB8107F10C03184600F014FF1837BD469C
:103EF00080BD000090B585B000AF0446084611466D
:103F00001A462346FB800346BB800B46FB701346D4
:103F1000BB701A4B7B441978FA78FB881846FDF77A
:103F20001DFEFB78002B1BD0154B7B441978BA780B
:103F3000FB881846FDF712FE124B7B44197897F860
:103F40002020FB881846FDF709FE97F82030002B4B
:103F500010D0BA88FB881146184602F06BFE0AE0C2
:103F600097F82030002B06D0BB88184602F073FE6D
:103F7000F86000E000BF1437BD4690BD6CE1FD1F46
:103F800057E1FD1F48E1FD1F80B58EB002AF78609C
:103F90000023FB627B680C33184604F025F90346C6
:103FA0007B857B681B88FB817B8D4FF6FF7293427C
:103FB00006D17B681B88184604F0A0F803467B8571
:103FC0007B8D4FF6FF72934222D007F118027B8D52
:103FD0000721184602F01BFB78627B6A002B17D181
:103FE000FB6934333B623B6A1B7C03F00103DBB2A9
:103FF000002B0BD13B6A03F112027B680C3319468C
:10400000104604F0C7F80346002B01D03B6AFB6260
:104010007B68188800230022F96A00F078FE786235
:104020007B6A002B09D009233B737B6A3B6107F154
:104030000C03184600F06EFE2CE0FB6A002B15D135
:1040400006233B7341F206033B820023BB7407F156
:104050000C03184600F05EFE7B681888798D0023FB
:10406000009300230022FFF745FF13E07B681B88C5
:104070000021184600F068FE7B6818887B6A002BD8
:104080000CBF01230023DAB2798D002300930023B3
:10409000FFF730FF3037BD4680BD80B586B000AF3A
:1040A000786007F10C0300221A605A609A600123BD
:1040B0003B737B681B88FB817B681B79C3F3000320
:1040C000DBB2002B14BF01230023DBB23B747B68FF
:1040D0001B79C3F34003DBB2002B14BF0123002381
:1040E000DBB27B7407F10C03184600F013FE18379F
:1040F000BD4680BD80B58EB000AF786000237B6385
:104100007B681B881846FDF765FC034687F833304B
:104110007B681B88184603F0F1FF03463B867B68EB
:104120001B7A87F828307B685B7A87F824307B68B5
:104130001B88324A7A44117800221846FDF70EFD9A
:1041400097F83330002B55D07B685B7903F004037C
:10415000DBB2002B17D03B8E0721184602F030FC53
:1041600078637B6B002B1FD008233B737B681B8815
:10417000FB813B8E3B827B6B7B6107F10C03184616
:1041800000F0C8FD10E07B681B881D4A7A44127855
:1041900011461846FDF7BAFC0346002B04D03B8EAF
:1041A000184602F058FDF86203233B767B681B88B3
:1041B0007B837B685B79C3F38003DBB2002B14BF86
:1041C00001230023DBB23B777B689B79C3F3800339
:1041D000DBB2002B14BF01230023DBB27B7797F8FF
:1041E0002830BB7797F82430FB7707F1180318467F
:1041F00000F090FD3837BD4680BD00BF4CDFFD1F8D
:10420000F6DEFD1F90B58BB000AF044608461146A0
:104210001A462346FB800346BB800B467B80134631
:104220007B7000237B6207F1180300221A605A603A
:104230009A6004233B76FB887B837B88BB837B78F7
:10424000BB771C4B7B441A78FB8811461846FDF758
:104250005DFC0346002B05D0BB88184602F0FBFC32
:10426000786216E0BB880721184602F021FB7862CD
:104270007B6A002B0DD07B6A052B0AD109233B7387
:10428000FB88FB817B6A3B6107F10C03184600F059
:1042900041FD094B7B441978FB8800221846FDF745
:1042A0005DFC07F11803184600F034FD2C37BD46BD
:1042B00090BD00BF3EDEFD1FECDDFD1F80B586B06A
:1042C00000AF0346FB800B46BB801346FB7007F133
:1042D0000C0300221A605A609A6006233B73FB8825
:1042E000FB81BB883B82FB78BB74084B7B4419780D
:1042F000FB8800221846FDF731FC07F10C03184635
:1043000000F008FD1837BD4680BD00BF94DDFD1FDD
:1043100080B584B000AF0346FB800B46BB801346DC
:10432000FB70184B7B441A78FB8811461846FDF742
:10433000EDFB0346002B22D0FB88184603F0DEFE7F
:104340000346FB81FB894FF6FF72934217D00E4B59
:104350007B441A78FB8811461846FDF7D7FB0346C5
:10436000002B06D0FB78BA88F989F888FFF74AFF56
:1043700005E0FA78B988FB881846FFF79FFF1037E9
:10438000BD4680BD5CDDFD1F31DDFD1F80B584B005
:1043900000AF78607B681B793D2B02D141F23D0371
:1043A00001E04FF48853FB817B681B88F989002268
:1043B0001846FFF7ADFF1037BD4680BD80B582B00F
:1043C00000AF78607B6818887B681B7999B27B683E
:1043D0005B79C3F30103DBB21A46FFF799FF083795
:1043E000BD4680BD80B582B000AF78607B681B7928
:1043F000002B03D17868FFF77DFE02E07868FFF7B5
:10440000DDFF0837BD4680BD80B586B000AF78605F
:104410007B681B881846FDF711FB0346002B29D04B
:104420007B681B88194A7A44127811461846FDF7B2
:104430006DFB034683F00103DBB2002B08D07B68E1
:104440001B88134A7A44117800221846FDF786FB30
:104450007B681B88FB8105233B737B681B881846A0
:10446000FDF704FB03463B7407F10C03184600F00C
:1044700051FC07E07B681B88012241F206011846C7
:10448000FFF71CFF1837BD4680BD00BF5BDCFD1F7A
:104490003CDCFD1F80B582B000AF78607B681B7884
:1044A000182B05D1FDF710FB03461A467B681A70DE
:1044B0000837BD4680BD000080B500AF134B7B447C
:1044C0001846FFF7E7FF124B7B441846FFF7E2FF61
:1044D000104B7B441846FFF7DDFF0F4B7B441B78E6
:1044E000182B09D00D4B7B441B78182B04D00C4B98
:1044F0007B441B78182B01D1032304E0094B7B4438
:1045000001221A700023184680BD00BFC2DBFD1FC8
:10451000B9DBFD1FB0DBFD1FA4DBFD1F9BDBFD1F17
:1045200092DBFD1F35ECFD1F80B596B002AF034650
:10453000B9607A60FB81FB891846FDF74BFA0346A8
:1045400087F845304FF6FF73A7F84E300023BB6461
:10455000002387F84730002387F8463007F11C0313
:104560002022002118460EF009FE97F84530002B56
:1045700002D143F20203B2E0BB68002B03D18523D2
:1045800087F8473061E0BB681B7803F00103DBB2BA
:10459000002B55D0FB89184603F0B0FD0346A7F861
:1045A0004E30B7F84E304FF6FF72934210D101F003
:1045B000DDFF0346A7F84E30B7F84E304FF6FF72D6
:1045C000934203D0012387F8463001E00323BB6404
:1045D000BB6C002B39D107F11403B7F84E00012250
:1045E000072102F093F8B864BB6C002B2DD1BB6996
:1045F0005022002118460EF0C1FDBB6997F84520F6
:104600001A70BB693433FB617B68BB62BB691833CA
:10461000FB62BB6901333B63334B7B44BB63BB69C8
:1046200003F11102FB891146184603F089FD386435
:10463000B7F84E300721184602F068F9B86404E074
:104640007B68BB62294B7B44BB63BB6C002B2FD1C7
:1046500097F84530022B09D107F11C0397F8471052
:10466000F889002200F04DFBB86421E007F11C033B
:1046700097F84710F889BA6800F043FBB864BB6844
:10468000002B15D0BB6C002B12D1BB681B7803F03C
:104690000103DBB2002B01D0012300E0022387F8E5
:1046A0003F3097F83F20FB891146184600F04CFB3D
:1046B000BB6C002B05D197F84730852B01D0012327
:1046C00000E0002303F00103DAB2B7F84E10F889D6
:1046D00097F8463000930123FFF70CFCBB6C18469B
:1046E0005037BD4680BD00BF1AEBFD1FEEEAFD1F2F
:1046F00090B58FB002AFB96011461A460346FB81F0
:104700000B467B731346FB800023BB62002387F8B4
:10471000273007F11802FB880721184601F077FFC0
:10472000F862FB6A002B15D1FB691833BB62FB6989
:1047300093F84430C3F30003DBB2002B14BF012312
:10474000002387F8273097F82730002B02D0FB6929
:104750003433BB627B7B83F00103DBB2002B1ED0C2
:10476000FB6A002B1BD1BB6A002B18D097F82730AF
:10477000002B07D1BB6A1233184602F015FA034624
:10478000002B0CD0BB6A03F11201BA6AFB891846F0
:1047900000F0BAFAF8623B6C00221A7039E0FB6A4A
:1047A000002B02D0FB6A052B33D10023FB62BB68D0
:1047B0001B7803F00103DBB2002B10D007F11003CC
:1047C000F8880122072101F0A1FFF862FB6A002BA3
:1047D00005D1FB880721184602F098F8F862FB6AB9
:1047E000002B05D1FB89B968184600F087FAF862FA
:1047F000FB6A002B0DD0FB880721184602F058F801
:1048000038623B6A002B04D03B6A052B01D003239E
:10481000FB62FB6A002B0CBF01230023DAB23B6C66
:104820001B78002B14BF01230023DCB2F988F88920
:10483000002300932346FFF75DFBFB6A18463437DD
:10484000BD4690BD90B58BB002AF03463960FB808A
:1048500001F08CFE03467B837B8B4FF6FF72934205
:104860002BD007F10C03788B0122072101F04EFFBA
:10487000F861FB69002B05D17B8B0721184602F0FC
:1048800045F8F861FB69002B05D1FB8839681846AB
:1048900000F034FAF861FB69002B11D07B8B072103
:1048A000184602F005F878617B69002B08D07B6917
:1048B000052B05D00323FB6103E00323FB6100E02C
:1048C00000BFFB69002B0CBF01230023DCB27B8BF4
:1048D0004FF6FF72934214BF01230023DBB2798BA2
:1048E000F888009301232246FFF704FBFB69184672
:1048F0002437BD4690BD80B586B002AF034639600F
:10490000FB8013467B713B68002B06D1FB8800219E
:10491000184600F0F3F903464CE03B681B7803F0BF
:104920000103DBB2002B01D0012300E002237B72E4
:10493000FB88184603F0E2FB03467B817B894FF638
:10494000FF7293420BD079897A79F88807F10903CD
:1049500000930B463968FFF7CBFEF86020E03B6818
:104960001B7803F00103DBB2002B06D0FB8839680B
:104970001846FFF767FFF86012E0FB8839681846B1
:1049800000F0BCF9F860FB68002B0CBF012300238A
:10499000DAB27989F888002300930123FFF7AAFA95
:1049A000FB68002B05D17A7AFB881146184600F087
:1049B000CBF9FB6818461037BD4680BD80B584B082
:1049C00000AF03463960FB80FB883968184600F069
:1049D00095F9F860FB6818461037BD4680BD80B574
:1049E00084B000AF03463960FB8013467B71FB88BF
:1049F0001846FCF7EFFF0346FB73FB7B012B09D046
:104A0000022B0ED17A79FB8839681846FFF773FFBD
:104A1000034608E0FB8839681846FFF7CFFF0346D6
:104A200001E043F2020318461037BD4680BD000086
:104A300080B582B000AF78607B681B88113B0D2B7E
:104A400043D802A252F823301A441047390000001C
:104A50007F00000045000000510000007F000000C2
:104A60007F0000007F0000007F0000006900000060
:104A7000750000007F0000007F0000007F00000044
:104A80005D0000007B6804331846FFF77FFC1CE0E4
:104A90007B6804331846FFF717FA16E07B68043387
:104AA0001846FFF771FA10E07B6804331846FFF7E9
:104AB000F4FA0AE07B6804331846FFF793FC04E03D
:104AC0007B6804331846FFF79FFC0837BD4680BD5E
